S0190000436172726F52432D41746D65676131364C2E7372656350
S11300000C942A000C9434000C9434000C943400A6
S11300100C9452000C9434000C9434000C9434006E
S11300200C9448000C9434000C9434000C94340068
S11300300C9434000C9434000C9434000C9434006C
S11300400C9434000C9434000C9434000C9434005C
S11300500C94340011241FBECFE5D4E0DEBFCDBF25
S11300600E9436000C946F000C9400000E943B0028
S11300700E945C00FFCF81B3826A81BB82B3816A34
S113008082BB8AB381648ABB8BB381648BBB0895C2
S11300901F920F920FB60F9211240F900FBE0F9064
S11300A01F9018951F920F920FB60F9211240F9064
S11300B00FBE0F901F90189581B3886081BB82B3E7
S11300C082BB8BB1806A8BB98AB188618AB980B5E9
S11300D0866E80BD80EA89B981E08CB90895F89470
S10500E0FFCF4C
S9030000FC
